{
  "_format": "hh-sol-artifact-1",
  "contractName": "DuckyAsset",
  "sourceName": "contracts/DuckyAsset/DuckyAsset.sol",
  "abi": [
    {
      "inputs": [
        {
          "internalType": "address",
          "name": "owner",
          "type": "address"
        }
      ],
      "stateMutability": "nonpayable",
      "type": "constructor"
    },
    {
      "inputs": [],
      "name": "ERC725Y_DataKeysValuesEmptyArray",
      "type": "error"
    },
    {
      "inputs": [],
      "name": "ERC725Y_DataKeysValuesLengthMismatch",
      "type": "error"
    },
    {
      "inputs": [],
      "name": "ERC725Y_MsgValueDisallowed",
      "type": "error"
    },
    {
      "inputs": [
        {
          "internalType": "bytes",
          "name": "storedData",
          "type": "bytes"
        }
      ],
      "name": "InvalidExtensionAddress",
      "type": "error"
    },
    {
      "inputs": [
        {
          "internalType": "bytes",
          "name": "data",
          "type": "bytes"
        }
      ],
      "name": "InvalidFunctionSelector",
      "type": "error"
    },
    {
      "inputs": [],
      "name": "LSP4TokenNameNotEditable",
      "type": "error"
    },
    {
      "inputs": [],
      "name": "LSP4TokenSymbolNotEditable",
      "type": "error"
    },
    {
      "inputs": [],
      "name": "LSP8CannotSendToAddressZero",
      "type": "error"
    },
    {
      "inputs": [],
      "name": "LSP8CannotSendToSelf",
      "type": "error"
    },
    {
      "inputs": [],
      "name": "LSP8CannotUseAddressZeroAsOperator",
      "type": "error"
    },
    {
      "inputs": [],
      "name": "LSP8InvalidTransferBatch",
      "type": "error"
    },
    {
      "inputs": [
        {
          "internalType": "bytes32",
          "name": "tokenId",
          "type": "bytes32"
        }
      ],
      "name": "LSP8NonExistentTokenId",
      "type": "error"
    },
    {
      "inputs": [
        {
          "internalType": "address",
          "name": "operator",
          "type": "address"
        },
        {
          "internalType": "bytes32",
          "name": "tokenId",
          "type": "bytes32"
        }
      ],
      "name": "LSP8NonExistingOperator",
      "type": "error"
    },
    {
      "inputs": [
        {
          "internalType": "bytes32",
          "name": "tokenId",
          "type": "bytes32"
        },
        {
          "internalType": "address",
          "name": "caller",
          "type": "address"
        }
      ],
      "name": "LSP8NotTokenOperator",
      "type": "error"
    },
    {
      "inputs": [
        {
          "internalType": "address",
          "name": "tokenOwner",
          "type": "address"
        },
        {
          "internalType": "bytes32",
          "name": "tokenId",
          "type": "bytes32"
        },
        {
          "internalType": "address",
          "name": "caller",
          "type": "address"
        }
      ],
      "name": "LSP8NotTokenOwner",
      "type": "error"
    },
    {
      "inputs": [
        {
          "internalType": "address",
          "name": "tokenReceiver",
          "type": "address"
        }
      ],
      "name": "LSP8NotifyTokenReceiverContractMissingLSP1Interface",
      "type": "error"
    },
    {
      "inputs": [
        {
          "internalType": "address",
          "name": "tokenReceiver",
          "type": "address"
        }
      ],
      "name": "LSP8NotifyTokenReceiverIsEOA",
      "type": "error"
    },
    {
      "inputs": [
        {
          "internalType": "address",
          "name": "operator",
          "type": "address"
        },
        {
          "internalType": "bytes32",
          "name": "tokenId",
          "type": "bytes32"
        }
      ],
      "name": "LSP8OperatorAlreadyAuthorized",
      "type": "error"
    },
    {
      "inputs": [],
      "name": "LSP8TokenContractCannotHoldValue",
      "type": "error"
    },
    {
      "inputs": [],
      "name": "LSP8TokenIdTypeNotEditable",
      "type": "error"
    },
    {
      "inputs": [],
      "name": "LSP8TokenOwnerCannotBeOperator",
      "type": "error"
    },
    {
      "inputs": [
        {
          "internalType": "bytes4",
          "name": "functionSelector",
          "type": "bytes4"
        }
      ],
      "name": "NoExtensionFoundForFunctionSelector",
      "type": "error"
    },
    {
      "inputs": [
        {
          "internalType": "address",
          "name": "callerAddress",
          "type": "address"
        }
      ],
      "name": "OwnableCallerNotTheOwner",
      "type": "error"
    },
    {
      "inputs": [],
      "name": "OwnableCannotSetZeroAddressAsOwner",
      "type": "error"
    },
    {
      "anonymous": false,
      "inputs": [
        {
          "indexed": true,
          "internalType": "address",
          "name": "operator",
          "type": "address"
        },
        {
          "indexed": true,
          "internalType": "address",
          "name": "tokenOwner",
          "type": "address"
        },
        {
          "indexed": true,
          "internalType": "bytes32",
          "name": "tokenId",
          "type": "bytes32"
        },
        {
          "indexed": false,
          "internalType": "bytes",
          "name": "operatorNotificationData",
          "type": "bytes"
        }
      ],
      "name": "AuthorizedOperator",
      "type": "event"
    },
    {
      "anonymous": false,
      "inputs": [
        {
          "indexed": true,
          "internalType": "bytes32",
          "name": "dataKey",
          "type": "bytes32"
        },
        {
          "indexed": false,
          "internalType": "bytes",
          "name": "dataValue",
          "type": "bytes"
        }
      ],
      "name": "DataChanged",
      "type": "event"
    },
    {
      "anonymous": false,
      "inputs": [
        {
          "indexed": true,
          "internalType": "address",
          "name": "previousOwner",
          "type": "address"
        },
        {
          "indexed": true,
          "internalType": "address",
          "name": "newOwner",
          "type": "address"
        }
      ],
      "name": "OwnershipTransferred",
      "type": "event"
    },
    {
      "anonymous": false,
      "inputs": [
        {
          "indexed": false,
          "internalType": "bytes32",
          "name": "typeId",
          "type": "bytes32"
        },
        {
          "indexed": false,
          "internalType": "bytes32",
          "name": "perkKey",
          "type": "bytes32"
        }
      ],
      "name": "RefreshRequired",
      "type": "event"
    },
    {
      "anonymous": false,
      "inputs": [
        {
          "indexed": true,
          "internalType": "address",
          "name": "operator",
          "type": "address"
        },
        {
          "indexed": true,
          "internalType": "address",
          "name": "tokenOwner",
          "type": "address"
        },
        {
          "indexed": true,
          "internalType": "bytes32",
          "name": "tokenId",
          "type": "bytes32"
        },
        {
          "indexed": false,
          "internalType": "bool",
          "name": "notified",
          "type": "bool"
        },
        {
          "indexed": false,
          "internalType": "bytes",
          "name": "operatorNotificationData",
          "type": "bytes"
        }
      ],
      "name": "RevokedOperator",
      "type": "event"
    },
    {
      "anonymous": false,
      "inputs": [
        {
          "indexed": false,
          "internalType": "address",
          "name": "operator",
          "type": "address"
        },
        {
          "indexed": true,
          "internalType": "address",
          "name": "from",
          "type": "address"
        },
        {
          "indexed": true,
          "internalType": "address",
          "name": "to",
          "type": "address"
        },
        {
          "indexed": true,
          "internalType": "bytes32",
          "name": "tokenId",
          "type": "bytes32"
        },
        {
          "indexed": false,
          "internalType": "bool",
          "name": "force",
          "type": "bool"
        },
        {
          "indexed": false,
          "internalType": "bytes",
          "name": "data",
          "type": "bytes"
        }
      ],
      "name": "Transfer",
      "type": "event"
    },
    {
      "stateMutability": "payable",
      "type": "fallback"
    },
    {
      "inputs": [
        {
          "internalType": "address",
          "name": "assetAddress",
          "type": "address"
        },
        {
          "internalType": "string",
          "name": "perkName",
          "type": "string"
        },
        {
          "internalType": "string",
          "name": "metadataURI",
          "type": "string"
        }
      ],
      "name": "addPerk",
      "outputs": [],
      "stateMutability": "nonpayable",
      "type": "function"
    },
    {
      "inputs": [
        {
          "internalType": "address",
          "name": "operator",
          "type": "address"
        },
        {
          "internalType": "bytes32",
          "name": "tokenId",
          "type": "bytes32"
        },
        {
          "internalType": "bytes",
          "name": "operatorNotificationData",
          "type": "bytes"
        }
      ],
      "name": "authorizeOperator",
      "outputs": [],
      "stateMutability": "nonpayable",
      "type": "function"
    },
    {
      "inputs": [
        {
          "internalType": "address",
          "name": "tokenOwner",
          "type": "address"
        }
      ],
      "name": "balanceOf",
      "outputs": [
        {
          "internalType": "uint256",
          "name": "",
          "type": "uint256"
        }
      ],
      "stateMutability": "view",
      "type": "function"
    },
    {
      "inputs": [
        {
          "internalType": "bytes32",
          "name": "dataKey",
          "type": "bytes32"
        }
      ],
      "name": "getData",
      "outputs": [
        {
          "internalType": "bytes",
          "name": "dataValue",
          "type": "bytes"
        }
      ],
      "stateMutability": "view",
      "type": "function"
    },
    {
      "inputs": [
        {
          "internalType": "bytes32[]",
          "name": "dataKeys",
          "type": "bytes32[]"
        }
      ],
      "name": "getDataBatch",
      "outputs": [
        {
          "internalType": "bytes[]",
          "name": "dataValues",
          "type": "bytes[]"
        }
      ],
      "stateMutability": "view",
      "type": "function"
    },
    {
      "inputs": [
        {
          "internalType": "bytes32",
          "name": "tokenId",
          "type": "bytes32"
        }
      ],
      "name": "getOperatorsOf",
      "outputs": [
        {
          "internalType": "address[]",
          "name": "",
          "type": "address[]"
        }
      ],
      "stateMutability": "view",
      "type": "function"
    },
    {
      "inputs": [
        {
          "internalType": "address",
          "name": "operator",
          "type": "address"
        },
        {
          "internalType": "bytes32",
          "name": "tokenId",
          "type": "bytes32"
        }
      ],
      "name": "isOperatorFor",
      "outputs": [
        {
          "internalType": "bool",
          "name": "",
          "type": "bool"
        }
      ],
      "stateMutability": "view",
      "type": "function"
    },
    {
      "inputs": [],
      "name": "owner",
      "outputs": [
        {
          "internalType": "address",
          "name": "",
          "type": "address"
        }
      ],
      "stateMutability": "view",
      "type": "function"
    },
    {
      "inputs": [],
      "name": "renounceOwnership",
      "outputs": [],
      "stateMutability": "nonpayable",
      "type": "function"
    },
    {
      "inputs": [
        {
          "internalType": "address",
          "name": "operator",
          "type": "address"
        },
        {
          "internalType": "bytes32",
          "name": "tokenId",
          "type": "bytes32"
        },
        {
          "internalType": "bool",
          "name": "notify",
          "type": "bool"
        },
        {
          "internalType": "bytes",
          "name": "operatorNotificationData",
          "type": "bytes"
        }
      ],
      "name": "revokeOperator",
      "outputs": [],
      "stateMutability": "nonpayable",
      "type": "function"
    },
    {
      "inputs": [
        {
          "internalType": "bytes32",
          "name": "dataKey",
          "type": "bytes32"
        },
        {
          "internalType": "bytes",
          "name": "dataValue",
          "type": "bytes"
        }
      ],
      "name": "setData",
      "outputs": [],
      "stateMutability": "payable",
      "type": "function"
    },
    {
      "inputs": [
        {
          "internalType": "bytes32[]",
          "name": "dataKeys",
          "type": "bytes32[]"
        },
        {
          "internalType": "bytes[]",
          "name": "dataValues",
          "type": "bytes[]"
        }
      ],
      "name": "setDataBatch",
      "outputs": [],
      "stateMutability": "payable",
      "type": "function"
    },
    {
      "inputs": [
        {
          "internalType": "address",
          "name": "_traitController",
          "type": "address"
        }
      ],
      "name": "setTraitController",
      "outputs": [],
      "stateMutability": "nonpayable",
      "type": "function"
    },
    {
      "inputs": [
        {
          "internalType": "bytes4",
          "name": "interfaceId",
          "type": "bytes4"
        }
      ],
      "name": "supportsInterface",
      "outputs": [
        {
          "internalType": "bool",
          "name": "",
          "type": "bool"
        }
      ],
      "stateMutability": "view",
      "type": "function"
    },
    {
      "inputs": [
        {
          "internalType": "address",
          "name": "tokenOwner",
          "type": "address"
        }
      ],
      "name": "tokenIdsOf",
      "outputs": [
        {
          "internalType": "bytes32[]",
          "name": "",
          "type": "bytes32[]"
        }
      ],
      "stateMutability": "view",
      "type": "function"
    },
    {
      "inputs": [
        {
          "internalType": "bytes32",
          "name": "tokenId",
          "type": "bytes32"
        }
      ],
      "name": "tokenOwnerOf",
      "outputs": [
        {
          "internalType": "address",
          "name": "",
          "type": "address"
        }
      ],
      "stateMutability": "view",
      "type": "function"
    },
    {
      "inputs": [],
      "name": "totalSupply",
      "outputs": [
        {
          "internalType": "uint256",
          "name": "",
          "type": "uint256"
        }
      ],
      "stateMutability": "view",
      "type": "function"
    },
    {
      "inputs": [],
      "name": "traitController",
      "outputs": [
        {
          "internalType": "address",
          "name": "",
          "type": "address"
        }
      ],
      "stateMutability": "view",
      "type": "function"
    },
    {
      "inputs": [
        {
          "internalType": "address",
          "name": "from",
          "type": "address"
        },
        {
          "internalType": "address",
          "name": "to",
          "type": "address"
        },
        {
          "internalType": "bytes32",
          "name": "tokenId",
          "type": "bytes32"
        },
        {
          "internalType": "bool",
          "name": "force",
          "type": "bool"
        },
        {
          "internalType": "bytes",
          "name": "data",
          "type": "bytes"
        }
      ],
      "name": "transfer",
      "outputs": [],
      "stateMutability": "nonpayable",
      "type": "function"
    },
    {
      "inputs": [
        {
          "internalType": "address[]",
          "name": "from",
          "type": "address[]"
        },
        {
          "internalType": "address[]",
          "name": "to",
          "type": "address[]"
        },
        {
          "internalType": "bytes32[]",
          "name": "tokenId",
          "type": "bytes32[]"
        },
        {
          "internalType": "bool[]",
          "name": "force",
          "type": "bool[]"
        },
        {
          "internalType": "bytes[]",
          "name": "data",
          "type": "bytes[]"
        }
      ],
      "name": "transferBatch",
      "outputs": [],
      "stateMutability": "nonpayable",
      "type": "function"
    },
    {
      "inputs": [
        {
          "internalType": "address",
          "name": "newOwner",
          "type": "address"
        }
      ],
      "name": "transferOwnership",
      "outputs": [],
      "stateMutability": "nonpayable",
      "type": "function"
    },
    {
      "stateMutability": "payable",
      "type": "receive"
    }
  ],
  "bytecode": "0x60806040523480156200001157600080fd5b50604051620053ba380380620053ba8339818101604052810190620000379190620006c0565b6040518060400160405280600e81526020017f47656e657369735065726b4e46540000000000000000000000000000000000008152506040518060400160405280600581526020017f47504e465400000000000000000000000000000000000000000000000000000081525082600483838380600073ffffffffffffffffffffffffffffffffffffffff168173ffffffffffffffffffffffffffffffffffffffff160362000111576040517f1ad8836c00000000000000000000000000000000000000000000000000000000815260040160405180910390fd5b62000122816200025b60201b60201c565b506200018d7feafec4d89fa9619884b60000a4d96624a38f7ac2d8d9a604ecf07c12c77e480c60001b6040518060400160405280600481526020017fa4d96624000000000000000000000000000000000000000000000000000000008152506200035c60201b60201c565b620001c27fdeba1e292f8ba88238e10ab3c7f88bd4be4fac56cad5194b6ecceaf653468af160001b846200035c60201b60201c565b620001f77f2f0a68ab07768e01943a599e73362a0e17a63a72e94dd2e384d2c1d4db93275660001b836200035c60201b60201c565b505050620002507f715f248956de7ce65e94d9d836bfead479f7e70d69b718d47bfe7b00e05b4fe460001b826040516020016200023591906200070d565b604051602081830303815290604052620003bd60201b60201c565b505050505062000c93565b6200026b6200050160201b60201c565b73ffffffffffffffffffffffffffffffffffffffff168173ffffffffffffffffffffffffffffffffffffffff161462000359578073ffffffffffffffffffffffffffffffffffffffff1660008054906101000a900473ffffffffffffffffffffffffffffffffffffffff1673ffffffffffffffffffffffffffffffffffffffff167f8be0079c531659141344cd1fd0a4f28419497f9722a3daafe3b4186f6b6457e060405160405180910390a3806000806101000a81548173ffffffffffffffffffffffffffffffffffffffff021916908373ffffffffffffffffffffffffffffffffffffffff1602179055505b50565b806001600084815260200190815260200160002090816200037e91906200099a565b50817fece574603820d07bc9b91f2a932baadf4628aabcb8afba49776529c14a6104b282604051620003b1919062000b10565b60405180910390a25050565b7fdeba1e292f8ba88238e10ab3c7f88bd4be4fac56cad5194b6ecceaf653468af160001b82036200041a576040517f85c169bd00000000000000000000000000000000000000000000000000000000815260040160405180910390fd5b7f2f0a68ab07768e01943a599e73362a0e17a63a72e94dd2e384d2c1d4db93275660001b820362000477576040517f76755b3800000000000000000000000000000000000000000000000000000000815260040160405180910390fd5b806001600084815260200190815260200160002090816200049991906200099a565b50817fece574603820d07bc9b91f2a932baadf4628aabcb8afba49776529c14a6104b261010083511115620004e457620004de8360006101006200052a60201b60201c565b620004e6565b825b604051620004f5919062000b10565b60405180910390a25050565b60008060009054906101000a900473ffffffffffffffffffffffffffffffffffffffff16905090565b606081601f836200053c919062000b63565b101562000580576040517f08c379a0000000000000000000000000000000000000000000000000000000008152600401620005779062000bff565b60405180910390fd5b81836200058e919062000b63565b84511015620005d4576040517f08c379a0000000000000000000000000000000000000000000000000000000008152600401620005cb9062000c71565b60405180910390fd5b6060821560008114620005f757604051915060008252602082016040526200064a565b6040519150601f8416801560200281840101858101878315602002848b0101015b8183101562000637578051835260208301925060208101905062000618565b50868552601f19601f8301166040525050505b50809150509392505050565b600080fd5b600073ffffffffffffffffffffffffffffffffffffffff82169050919050565b600062000688826200065b565b9050919050565b6200069a816200067b565b8114620006a657600080fd5b50565b600081519050620006ba816200068f565b92915050565b600060208284031215620006d957620006d862000656565b5b6000620006e984828501620006a9565b91505092915050565b6000819050919050565b6200070781620006f2565b82525050565b6000602082019050620007246000830184620006fc565b92915050565b600081519050919050565b7f4e487b7100000000000000000000000000000000000000000000000000000000600052604160045260246000fd5b7f4e487b7100000000000000000000000000000000000000000000000000000000600052602260045260246000fd5b60006002820490506001821680620007ac57607f821691505b602082108103620007c257620007c162000764565b5b50919050565b60008190508160005260206000209050919050565b60006020601f8301049050919050565b600082821b905092915050565b6000600883026200082c7fffffffffffffffffffffffffffffffffffffffffffffffffffffffffffffffff82620007ed565b620008388683620007ed565b95508019841693508086168417925050509392505050565b6000819050919050565b60006200087b620008756200086f84620006f2565b62000850565b620006f2565b9050919050565b6000819050919050565b62000897836200085a565b620008af620008a68262000882565b848454620007fa565b825550505050565b600090565b620008c6620008b7565b620008d38184846200088c565b505050565b5b81811015620008fb57620008ef600082620008bc565b600181019050620008d9565b5050565b601f8211156200094a576200091481620007c8565b6200091f84620007dd565b810160208510156200092f578190505b620009476200093e85620007dd565b830182620008d8565b50505b505050565b600082821c905092915050565b60006200096f600019846008026200094f565b1980831691505092915050565b60006200098a83836200095c565b9150826002028217905092915050565b620009a5826200072a565b67ffffffffffffffff811115620009c157620009c062000735565b5b620009cd825462000793565b620009da828285620008ff565b600060209050601f83116001811462000a125760008415620009fd578287015190505b62000a0985826200097c565b86555062000a79565b601f19841662000a2286620007c8565b60005b8281101562000a4c5784890151825560018201915060208501945060208101905062000a25565b8683101562000a6c578489015162000a68601f8916826200095c565b8355505b6001600288020188555050505b505050505050565b600082825260208201905092915050565b60005b8381101562000ab257808201518184015260208101905062000a95565b60008484015250505050565b6000601f19601f8301169050919050565b600062000adc826200072a565b62000ae8818562000a81565b935062000afa81856020860162000a92565b62000b058162000abe565b840191505092915050565b6000602082019050818103600083015262000b2c818462000acf565b905092915050565b7f4e487b7100000000000000000000000000000000000000000000000000000000600052601160045260246000fd5b600062000b7082620006f2565b915062000b7d83620006f2565b925082820190508082111562000b985762000b9762000b34565b5b92915050565b600082825260208201905092915050565b7f736c6963655f6f766572666c6f77000000000000000000000000000000000000600082015250565b600062000be7600e8362000b9e565b915062000bf48262000baf565b602082019050919050565b6000602082019050818103600083015262000c1a8162000bd8565b9050919050565b7f736c6963655f6f75744f66426f756e6473000000000000000000000000000000600082015250565b600062000c5960118362000b9e565b915062000c668262000c21565b602082019050919050565b6000602082019050818103600083015262000c8c8162000c4a565b9050919050565b6147178062000ca36000396000f3fe60806040526004361061012e5760003560e01c80637e87632c116100ab578063979024211161006f57806397902421146104d6578063a3b261f2146104f2578063db8c96631461052f578063dedff9c614610558578063e988a1bb14610595578063f2fde38b146105be576101a8565b80637e87632c146104145780637f23690c1461043d57806386a10ddd146104595780638da5cb5b1461048257806393369270146104ad576101a8565b806349a6078d116100f257806349a6078d1461031d578063511b69521461035a57806354f6127f1461038357806370a08231146103c0578063715018a6146103fd576101a8565b806301ffc9a71461021057806318160ddd1461024d57806319437b0314610278578063217b2270146102a35780632a3654a4146102e0576101a8565b366101a85760003403610176576040517fe5099ee300000000000000000000000000000000000000000000000000000000815260040161016d90612972565b60405180910390fd5b6040517f61f4944200000000000000000000000000000000000000000000000000000000815260040160405180910390fd5b60003660606004600036905010156101f95782826040517fe5099ee30000000000000000000000000000000000000000000000000000000081526004016101f09291906129df565b60405180910390fd5b61020383836105e7565b9050915050805190602001f35b34801561021c57600080fd5b5061023760048036038101906102329190612a6f565b610765565b6040516102449190612ab7565b60405180910390f35b34801561025957600080fd5b506102626107d6565b60405161026f9190612aeb565b60405180910390f35b34801561028457600080fd5b5061028d6107e0565b60405161029a9190612b47565b60405180910390f35b3480156102af57600080fd5b506102ca60048036038101906102c59190612b98565b610806565b6040516102d79190612b47565b60405180910390f35b3480156102ec57600080fd5b5061030760048036038101906103029190612bf1565b6108b9565b6040516103149190612ab7565b60405180910390f35b34801561032957600080fd5b50610344600480360381019061033f9190612b98565b6108d6565b6040516103519190612cef565b60405180910390f35b34801561036657600080fd5b50610381600480360381019061037c9190612e63565b610903565b005b34801561038f57600080fd5b506103aa60048036038101906103a59190612b98565b610964565b6040516103b79190612f68565b60405180910390f35b3480156103cc57600080fd5b506103e760048036038101906103e29190612f8a565b610976565b6040516103f49190612aeb565b60405180910390f35b34801561040957600080fd5b506104126109c6565b005b34801561042057600080fd5b5061043b600480360381019061043691906132e6565b6109da565b005b610457600480360381019061045291906133ed565b610aee565b005b34801561046557600080fd5b50610480600480360381019061047b9190613449565b610b3e565b005b34801561048e57600080fd5b50610497610ddd565b6040516104a49190612b47565b60405180910390f35b3480156104b957600080fd5b506104d460048036038101906104cf9190612f8a565b610e06565b005b6104f060048036038101906104eb91906134b8565b610e52565b005b3480156104fe57600080fd5b5061051960048036038101906105149190612f8a565b610f64565b60405161052691906135ee565b60405180910390f35b34801561053b57600080fd5b5061055660048036038101906105519190613610565b610fb4565b005b34801561056457600080fd5b5061057f600480360381019061057a9190613693565b611195565b60405161058c91906137e8565b60405180910390f35b3480156105a157600080fd5b506105bc60048036038101906105b791906138ab565b611246565b005b3480156105ca57600080fd5b506105e560048036038101906105e09190612f8a565b611467565b005b606060006106186000357fffffffff00000000000000000000000000000000000000000000000000000000166114e1565b509050600073ffffffffffffffffffffffffffffffffffffffff168173ffffffffffffffffffffffffffffffffffffffff16036106b0576000357fffffffff00000000000000000000000000000000000000000000000000000000166040517fbb370b2b0000000000000000000000000000000000000000000000000000000081526004016106a79190613945565b60405180910390fd5b6000808273ffffffffffffffffffffffffffffffffffffffff1634878733346040516020016106e294939291906139f9565b6040516020818303038152906040526040516106fe9190613a65565b60006040518083038185875af1925050503d806000811461073b576040519150601f19603f3d011682016040523d82523d6000602084013e610740565b606091505b509150915081156107565780935050505061075f565b80518060208301fd5b92915050565b60006330dc527860e01b7bffffffffffffffffffffffffffffffffffffffffffffffffffffffff1916827bffffffffffffffffffffffffffffffffffffffffffffffffffffffff191614806107bf57506107be8261159b565b5b806107cf57506107ce826115fc565b5b9050919050565b6000600254905090565b600760009054906101000a900473ffffffffffffffffffffffffffffffffffffffff1681565b6000806003600084815260200190815260200160002060009054906101000a900473ffffffffffffffffffffffffffffffffffffffff169050600073ffffffffffffffffffffffffffffffffffffffff168173ffffffffffffffffffffffffffffffffffffffff16036108b057826040517fae8f9a360000000000000000000000000000000000000000000000000000000081526004016108a79190613a8b565b60405180910390fd5b80915050919050565b60006108c482611663565b6108ce83836116b0565b905092915050565b60606108e182611663565b6108fc6005600084815260200190815260200160002061171d565b9050919050565b61090d33846116b0565b6109505782336040517f1294d2a9000000000000000000000000000000000000000000000000000000008152600401610947929190613aa6565b60405180910390fd5b61095d858585858561173e565b5050505050565b606061096f82611aa3565b9050919050565b60006109bf600460008473ffffffffffffffffffffffffffffffffffffffff1673ffffffffffffffffffffffffffffffffffffffff168152602001908152602001600020611b48565b9050919050565b6109ce611b5d565b6109d86000611bd6565b565b6000855190508451811415806109f1575083518114155b806109fd575082518114155b80610a09575081518114155b15610a40576040517f93a8311900000000000000000000000000000000000000000000000000000000815260040160405180910390fd5b60005b81811015610ae557610ada878281518110610a6157610a60613acf565b5b6020026020010151878381518110610a7c57610a7b613acf565b5b6020026020010151878481518110610a9757610a96613acf565b5b6020026020010151878581518110610ab257610ab1613acf565b5b6020026020010151878681518110610acd57610acc613acf565b5b6020026020010151610903565b806001019050610a43565b50505050505050565b610af6611b5d565b60003414610b30576040517ff36ba73700000000000000000000000000000000000000000000000000000000815260040160405180910390fd5b610b3a8282611cce565b5050565b6000610b4983610806565b90503373ffffffffffffffffffffffffffffffffffffffff168173ffffffffffffffffffffffffffffffffffffffff1614610bbf578083336040517f5b271ea2000000000000000000000000000000000000000000000000000000008152600401610bb693929190613afe565b60405180910390fd5b600073ffffffffffffffffffffffffffffffffffffffff168473ffffffffffffffffffffffffffffffffffffffff1603610c25576040517f9577b8b300000000000000000000000000000000000000000000000000000000815260040160405180910390fd5b8373ffffffffffffffffffffffffffffffffffffffff168173ffffffffffffffffffffffffffffffffffffffff1603610c8a576040517f89fdad6200000000000000000000000000000000000000000000000000000000815260040160405180910390fd5b6000610cb18560056000878152602001908152602001600020611d3890919063ffffffff16565b905080610cf75784846040517fa7626b68000000000000000000000000000000000000000000000000000000008152600401610cee929190613b35565b60405180910390fd5b838273ffffffffffffffffffffffffffffffffffffffff168673ffffffffffffffffffffffffffffffffffffffff167e52e433f2d4225671bc164dd1cdc9a76044356091f27ad234798bd0cbf0834986604051610d549190612f68565b60405180910390a460003385600186604051602001610d769493929190613b5e565b6040516020818303038152906040529050610dd57f8a1c15a8799f71b547e08e2bcb2e85257e81b0a07eee2ce6712549eef1f0097060001b828873ffffffffffffffffffffffffffffffffffffffff16611d689092919063ffffffff16565b505050505050565b60008060009054906101000a900473ffffffffffffffffffffffffffffffffffffffff16905090565b610e0e611b5d565b80600760006101000a81548173ffffffffffffffffffffffffffffffffffffffff021916908373ffffffffffffffffffffffffffffffffffffffff16021790555050565b610e5a611b5d565b60003414610e94576040517ff36ba73700000000000000000000000000000000000000000000000000000000815260040160405180910390fd5b8051825114610ecf576040517f3bcc897900000000000000000000000000000000000000000000000000000000815260040160405180910390fd5b6000825103610f0a576040517f97da5f9500000000000000000000000000000000000000000000000000000000815260040160405180910390fd5b60005b8251811015610f5f57610f54838281518110610f2c57610f2b613acf565b5b6020026020010151838381518110610f4757610f46613acf565b5b6020026020010151611cce565b806001019050610f0d565b505050565b6060610fad600460008473ffffffffffffffffffffffffffffffffffffffff1673ffffffffffffffffffffffffffffffffffffffff168152602001908152602001600020611e27565b9050919050565b6000610fbf84610806565b90503373ffffffffffffffffffffffffffffffffffffffff168173ffffffffffffffffffffffffffffffffffffffff1614611035578084336040517f5b271ea200000000000000000000000000000000000000000000000000000000815260040161102c93929190613afe565b60405180910390fd5b600073ffffffffffffffffffffffffffffffffffffffff168573ffffffffffffffffffffffffffffffffffffffff160361109b576040517f9577b8b300000000000000000000000000000000000000000000000000000000815260040160405180910390fd5b8473ffffffffffffffffffffffffffffffffffffffff168173ffffffffffffffffffffffffffffffffffffffff1603611100576040517f89fdad6200000000000000000000000000000000000000000000000000000000815260040160405180910390fd5b61110d8582868686611e48565b821561118e576000338560008560405160200161112d9493929190613b5e565b604051602081830303815290604052905061118c7f8a1c15a8799f71b547e08e2bcb2e85257e81b0a07eee2ce6712549eef1f0097060001b828873ffffffffffffffffffffffffffffffffffffffff16611d689092919063ffffffff16565b505b5050505050565b6060815167ffffffffffffffff8111156111b2576111b1612d47565b5b6040519080825280602002602001820160405280156111e557816020015b60608152602001906001900390816111d05790505b50905060005b82518110156112405761121783828151811061120a57611209613acf565b5b6020026020010151611aa3565b82828151811061122a57611229613acf565b5b60200260200101819052508060010190506111eb565b50919050565b600760009054906101000a900473ffffffffffffffffffffffffffffffffffffffff1673ffffffffffffffffffffffffffffffffffffffff163373ffffffffffffffffffffffffffffffffffffffff16146112d6576040517f08c379a00000000000000000000000000000000000000000000000000000000081526004016112cd90613c2d565b60405180910390fd5b600061131884846040518060400160405280600881526020017f4d65746164617461000000000000000000000000000000000000000000000000815250611f25565b9050600061135c85856040518060400160405280600881526020017f52656465656d6564000000000000000000000000000000000000000000000000815250611f25565b905060006113a086866040518060400160405280600981526020017f46756c66696c6c65640000000000000000000000000000000000000000000000815250611f25565b90506113ab82611f5b565b6113d483856040516020016113c09190613c91565b604051602081830303815290604052611cce565b6113fe8260006040516020016113ea9190612ab7565b604051602081830303815290604052611cce565b6114288160006040516020016114149190612ab7565b604051602081830303815290604052611cce565b7f1361340815479d491874de8c80a52d7f937eb26125a7bd396d896f44b7ee1cf6836040516114579190613cd9565b60405180910390a1505050505050565b61146f611b5d565b600073ffffffffffffffffffffffffffffffffffffffff168173ffffffffffffffffffffffffffffffffffffffff16036114d5576040517f1ad8836c00000000000000000000000000000000000000000000000000000000815260040160405180910390fd5b6114de81611bd6565b50565b600080600061151c69cee78b4094da8601109660b01b857bffffffffffffffffffffffffffffffffffffffffffffffffffffffff1916611faa565b9050600061152982611aa3565b9050601481511415801561153f57506000815114155b1561158157806040517f42bfe79f0000000000000000000000000000000000000000000000000000000081526004016115789190612f68565b60405180910390fd5b8061158b90613d5e565b60601c6001935093505050915091565b600063a918fa6b60e01b7bffffffffffffffffffffffffffffffffffffffffffffffffffffffff1916827bffffffffffffffffffffffffffffffffffffffffffffffffffffffff191614806115f557506115f482611fea565b5b9050919050565b60008061160f6301ffc9a760e01b6114e1565b509050600073ffffffffffffffffffffffffffffffffffffffff168173ffffffffffffffffffffffffffffffffffffffff160361165057600091505061165e565b61165a818461204b565b9150505b919050565b61166c8161210a565b6116ad57806040517fae8f9a360000000000000000000000000000000000000000000000000000000081526004016116a49190613a8b565b60405180910390fd5b50565b60006116bb82610806565b73ffffffffffffffffffffffffffffffffffffffff168373ffffffffffffffffffffffffffffffffffffffff1614806117155750611714836005600085815260200190815260200160002061217690919063ffffffff16565b5b905092915050565b6060600061172d836000016121a6565b905060608190508092505050919050565b8373ffffffffffffffffffffffffffffffffffffffff168573ffffffffffffffffffffffffffffffffffffffff16036117a3576040517f5d67d6c100000000000000000000000000000000000000000000000000000000815260040160405180910390fd5b60006117ae84610806565b90508573ffffffffffffffffffffffffffffffffffffffff168173ffffffffffffffffffffffffffffffffffffffff1614611824578084876040517f5b271ea200000000000000000000000000000000000000000000000000000000815260040161181b93929190613afe565b60405180910390fd5b600073ffffffffffffffffffffffffffffffffffffffff168573ffffffffffffffffffffffffffffffffffffffff160361188a576040517f24ecef4d00000000000000000000000000000000000000000000000000000000815260040160405180910390fd5b61189686868685612202565b61189f84610806565b90506118ab8685612208565b6118fc84600460008973ffffffffffffffffffffffffffffffffffffffff1673ffffffffffffffffffffffffffffffffffffffff16815260200190815260200160002061227e90919063ffffffff16565b5061194e84600460008873ffffffffffffffffffffffffffffffffffffffff1673ffffffffffffffffffffffffffffffffffffffff16815260200190815260200160002061229590919063ffffffff16565b50846003600086815260200190815260200160002060006101000a81548173ffffffffffffffffffffffffffffffffffffffff021916908373ffffffffffffffffffffffffffffffffffffffff160217905550838573ffffffffffffffffffffffffffffffffffffffff168773ffffffffffffffffffffffffffffffffffffffff167fb333c813a7426a7a11e2b190cad52c44119421594b47f6f32ace6d8c7207b2bf338787604051611a0393929190613dc5565b60405180910390a4611a17868686856122ac565b600086868685604051602001611a309493929190613e03565b6040516020818303038152906040529050611a8f7fb23eae7e6d1564b295b4c3e3be402d9a2f0776c57bdf365903496f6fa481ab0060001b828973ffffffffffffffffffffffffffffffffffffffff16611d689092919063ffffffff16565b611a9a8685836122b2565b50505050505050565b6060600160008381526020019081526020016000208054611ac390613e7e565b80601f0160208091040260200160405190810160405280929190818152602001828054611aef90613e7e565b8015611b3c5780601f10611b1157610100808354040283529160200191611b3c565b820191906000526020600020905b815481529060010190602001808311611b1f57829003601f168201915b50505050509050919050565b6000611b5682600001612437565b9050919050565b3373ffffffffffffffffffffffffffffffffffffffff16611b7c610ddd565b73ffffffffffffffffffffffffffffffffffffffff1614611bd457336040517fbf1169c5000000000000000000000000000000000000000000000000000000008152600401611bcb9190612b47565b60405180910390fd5b565b611bde610ddd565b73ffffffffffffffffffffffffffffffffffffffff168173ffffffffffffffffffffffffffffffffffffffff1614611ccb578073ffffffffffffffffffffffffffffffffffffffff1660008054906101000a900473ffffffffffffffffffffffffffffffffffffffff1673ffffffffffffffffffffffffffffffffffffffff167f8be0079c531659141344cd1fd0a4f28419497f9722a3daafe3b4186f6b6457e060405160405180910390a3806000806101000a81548173ffffffffffffffffffffffffffffffffffffffff021916908373ffffffffffffffffffffffffffffffffffffffff1602179055505b50565b7f715f248956de7ce65e94d9d836bfead479f7e70d69b718d47bfe7b00e05b4fe460001b8203611d2a576040517f53bc112200000000000000000000000000000000000000000000000000000000815260040160405180910390fd5b611d348282612448565b5050565b6000611d60836000018373ffffffffffffffffffffffffffffffffffffffff1660001b61257c565b905092915050565b611d98636bb56a1460e01b8473ffffffffffffffffffffffffffffffffffffffff1661204b90919063ffffffff16565b15611e22578273ffffffffffffffffffffffffffffffffffffffff16636bb56a1483836040518363ffffffff1660e01b8152600401611dd8929190613eaf565b6000604051808303816000875af1158015611df7573d6000803e3d6000fd5b505050506040513d6000823e3d601f19601f82011682018060405250810190611e209190613f4f565b505b505050565b60606000611e37836000016121a6565b905060608190508092505050919050565b6000611e6f86600560008781526020019081526020016000206125ec90919063ffffffff16565b905080611eb55785846040517f4aa31a8c000000000000000000000000000000000000000000000000000000008152600401611eac929190613b35565b60405180910390fd5b838573ffffffffffffffffffffffffffffffffffffffff168773ffffffffffffffffffffffffffffffffffffffff167f3ee932cea40ebbbfd8577d47156cc17cce8683802c57bbd1fb8c131c6f07af0a8686604051611f15929190613f98565b60405180910390a4505050505050565b6000838383604051602001611f3c9392919061409c565b6040516020818303038152906040528051906020012090509392505050565b6000611f6682611aa3565b5114611fa7576040517f08c379a0000000000000000000000000000000000000000000000000000000008152600401611f9e9061413e565b60405180910390fd5b50565b60008083600060f01b84604051602001611fc693929190614219565b604051602081830303815290604052905080611fe19061426b565b91505092915050565b600063629aa69460e01b7bffffffffffffffffffffffffffffffffffffffffffffffffffffffff1916827bffffffffffffffffffffffffffffffffffffffffffffffffffffffff1916148061204457506120438261261c565b5b9050919050565b6000806301ffc9a760e01b836040516024016120679190613945565b604051602081830303815290604052907bffffffffffffffffffffffffffffffffffffffffffffffffffffffff19166020820180517bffffffffffffffffffffffffffffffffffffffffffffffffffffffff838183161783525050505090506000806000602060008551602087018a617530fa92503d915060005190508280156120f2575060208210155b80156120fe5750600081115b94505050505092915050565b60008073ffffffffffffffffffffffffffffffffffffffff166003600084815260200190815260200160002060009054906101000a900473ffffffffffffffffffffffffffffffffffffffff1673ffffffffffffffffffffffffffffffffffffffff1614159050919050565b600061219e836000018373ffffffffffffffffffffffffffffffffffffffff1660001b612686565b905092915050565b6060816000018054806020026020016040519081016040528092919081815260200182805480156121f657602002820191906000526020600020905b8154815260200190600101908083116121e2575b50505050509050919050565b50505050565b6000600560008381526020019081526020016000209050600061222a826126a9565b90506000805b828110156122765761224c6000856126be90919063ffffffff16565b915061226b828787600060405180602001604052806000815250611e48565b806001019050612230565b505050505050565b600061228d83600001836126d8565b905092915050565b60006122a4836000018361257c565b905092915050565b50505050565b6122e2636bb56a1460e01b8473ffffffffffffffffffffffffffffffffffffffff1661204b90919063ffffffff16565b15612393578273ffffffffffffffffffffffffffffffffffffffff16636bb56a147f0b084a55ebf70fd3c06fd755269dac2212c4d3f0f4d09079780bfa50c1b2984d60001b836040518363ffffffff1660e01b8152600401612345929190613eaf565b6000604051808303816000875af1158015612364573d6000803e3d6000fd5b505050506040513d6000823e3d601f19601f8201168201806040525081019061238d9190613f4f565b50612432565b816124315760008373ffffffffffffffffffffffffffffffffffffffff163b146123f457826040517f4349776d0000000000000000000000000000000000000000000000000000000081526004016123eb9190612b47565b60405180910390fd5b826040517f031731370000000000000000000000000000000000000000000000000000000081526004016124289190612b47565b60405180910390fd5b5b505050565b600081600001805490509050919050565b7fdeba1e292f8ba88238e10ab3c7f88bd4be4fac56cad5194b6ecceaf653468af160001b82036124a4576040517f85c169bd00000000000000000000000000000000000000000000000000000000815260040160405180910390fd5b7f2f0a68ab07768e01943a599e73362a0e17a63a72e94dd2e384d2c1d4db93275660001b8203612500576040517f76755b3800000000000000000000000000000000000000000000000000000000815260040160405180910390fd5b806001600084815260200190815260200160002090816125209190614471565b50817fece574603820d07bc9b91f2a932baadf4628aabcb8afba49776529c14a6104b2610100835111156125615761255c8360006101006127ec565b612563565b825b6040516125709190612f68565b60405180910390a25050565b60006125888383612686565b6125e15782600001829080600181540180825580915050600190039060005260206000200160009091909190915055826000018054905083600101600084815260200190815260200160002081905550600190506125e6565b600090505b92915050565b6000612614836000018373ffffffffffffffffffffffffffffffffffffffff1660001b6126d8565b905092915050565b60007f01ffc9a7000000000000000000000000000000000000000000000000000000007bffffffffffffffffffffffffffffffffffffffffffffffffffffffff1916827bffffffffffffffffffffffffffffffffffffffffffffffffffffffff1916149050919050565b600080836001016000848152602001908152602001600020541415905092915050565b60006126b782600001612437565b9050919050565b60006126cd836000018361290a565b60001c905092915050565b600080836001016000848152602001908152602001600020549050600081146127e057600060018261270a9190614572565b90506000600186600001805490506127229190614572565b905081811461279157600086600001828154811061274357612742613acf565b5b906000526020600020015490508087600001848154811061276757612766613acf565b5b90600052602060002001819055508387600101600083815260200190815260200160002081905550505b856000018054806127a5576127a46145a6565b5b6001900381819060005260206000200160009055905585600101600086815260200190815260200160002060009055600193505050506127e6565b60009150505b92915050565b606081601f836127fc91906145d5565b101561283d576040517f08c379a000000000000000000000000000000000000000000000000000000000815260040161283490614655565b60405180910390fd5b818361284991906145d5565b8451101561288c576040517f08c379a0000000000000000000000000000000000000000000000000000000008152600401612883906146c1565b60405180910390fd5b60608215600081146128ad57604051915060008252602082016040526128fe565b6040519150601f8416801560200281840101858101878315602002848b0101015b818310156128eb57805183526020830192506020810190506128ce565b50868552601f19601f8301166040525050505b50809150509392505050565b600082600001828154811061292257612921613acf565b5b9060005260206000200154905092915050565b600082825260208201905092915050565b60008082015250565b600061295c600483612935565b915061296782612946565b602082019050919050565b6000602082019050818103600083015261298b8161294f565b9050919050565b82818337600083830152505050565b6000601f19601f8301169050919050565b60006129be8385612935565b93506129cb838584612992565b6129d4836129a1565b840190509392505050565b600060208201905081810360008301526129fa8184866129b2565b90509392505050565b6000604051905090565b600080fd5b600080fd5b60007fffffffff0000000000000000000000000000000000000000000000000000000082169050919050565b612a4c81612a17565b8114612a5757600080fd5b50565b600081359050612a6981612a43565b92915050565b600060208284031215612a8557612a84612a0d565b5b6000612a9384828501612a5a565b91505092915050565b60008115159050919050565b612ab181612a9c565b82525050565b6000602082019050612acc6000830184612aa8565b92915050565b6000819050919050565b612ae581612ad2565b82525050565b6000602082019050612b006000830184612adc565b92915050565b600073ffffffffffffffffffffffffffffffffffffffff82169050919050565b6000612b3182612b06565b9050919050565b612b4181612b26565b82525050565b6000602082019050612b5c6000830184612b38565b92915050565b6000819050919050565b612b7581612b62565b8114612b8057600080fd5b50565b600081359050612b9281612b6c565b92915050565b600060208284031215612bae57612bad612a0d565b5b6000612bbc84828501612b83565b91505092915050565b612bce81612b26565b8114612bd957600080fd5b50565b600081359050612beb81612bc5565b92915050565b60008060408385031215612c0857612c07612a0d565b5b6000612c1685828601612bdc565b9250506020612c2785828601612b83565b9150509250929050565b600081519050919050565b600082825260208201905092915050565b6000819050602082019050919050565b612c6681612b26565b82525050565b6000612c788383612c5d565b60208301905092915050565b6000602082019050919050565b6000612c9c82612c31565b612ca68185612c3c565b9350612cb183612c4d565b8060005b83811015612ce2578151612cc98882612c6c565b9750612cd483612c84565b925050600181019050612cb5565b5085935050505092915050565b60006020820190508181036000830152612d098184612c91565b905092915050565b612d1a81612a9c565b8114612d2557600080fd5b50565b600081359050612d3781612d11565b92915050565b600080fd5b600080fd5b7f4e487b7100000000000000000000000000000000000000000000000000000000600052604160045260246000fd5b612d7f826129a1565b810181811067ffffffffffffffff82111715612d9e57612d9d612d47565b5b80604052505050565b6000612db1612a03565b9050612dbd8282612d76565b919050565b600067ffffffffffffffff821115612ddd57612ddc612d47565b5b612de6826129a1565b9050602081019050919050565b6000612e06612e0184612dc2565b612da7565b905082815260208101848484011115612e2257612e21612d42565b5b612e2d848285612992565b509392505050565b600082601f830112612e4a57612e49612d3d565b5b8135612e5a848260208601612df3565b91505092915050565b600080600080600060a08688031215612e7f57612e7e612a0d565b5b6000612e8d88828901612bdc565b9550506020612e9e88828901612bdc565b9450506040612eaf88828901612b83565b9350506060612ec088828901612d28565b925050608086013567ffffffffffffffff811115612ee157612ee0612a12565b5b612eed88828901612e35565b9150509295509295909350565b600081519050919050565b60005b83811015612f23578082015181840152602081019050612f08565b60008484015250505050565b6000612f3a82612efa565b612f448185612935565b9350612f54818560208601612f05565b612f5d816129a1565b840191505092915050565b60006020820190508181036000830152612f828184612f2f565b905092915050565b600060208284031215612fa057612f9f612a0d565b5b6000612fae84828501612bdc565b91505092915050565b600067ffffffffffffffff821115612fd257612fd1612d47565b5b602082029050602081019050919050565b600080fd5b6000612ffb612ff684612fb7565b612da7565b9050808382526020820190506020840283018581111561301e5761301d612fe3565b5b835b8181101561304757806130338882612bdc565b845260208401935050602081019050613020565b5050509392505050565b600082601f83011261306657613065612d3d565b5b8135613076848260208601612fe8565b91505092915050565b600067ffffffffffffffff82111561309a57613099612d47565b5b602082029050602081019050919050565b60006130be6130b98461307f565b612da7565b905080838252602082019050602084028301858111156130e1576130e0612fe3565b5b835b8181101561310a57806130f68882612b83565b8452602084019350506020810190506130e3565b5050509392505050565b600082601f83011261312957613128612d3d565b5b81356131398482602086016130ab565b91505092915050565b600067ffffffffffffffff82111561315d5761315c612d47565b5b602082029050602081019050919050565b600061318161317c84613142565b612da7565b905080838252602082019050602084028301858111156131a4576131a3612fe3565b5b835b818110156131cd57806131b98882612d28565b8452602084019350506020810190506131a6565b5050509392505050565b600082601f8301126131ec576131eb612d3d565b5b81356131fc84826020860161316e565b91505092915050565b600067ffffffffffffffff8211156132205761321f612d47565b5b602082029050602081019050919050565b600061324461323f84613205565b612da7565b9050808382526020820190506020840283018581111561326757613266612fe3565b5b835b818110156132ae57803567ffffffffffffffff81111561328c5761328b612d3d565b5b8086016132998982612e35565b85526020850194505050602081019050613269565b5050509392505050565b600082601f8301126132cd576132cc612d3d565b5b81356132dd848260208601613231565b91505092915050565b600080600080600060a0868803121561330257613301612a0d565b5b600086013567ffffffffffffffff8111156133205761331f612a12565b5b61332c88828901613051565b955050602086013567ffffffffffffffff81111561334d5761334c612a12565b5b61335988828901613051565b945050604086013567ffffffffffffffff81111561337a57613379612a12565b5b61338688828901613114565b935050606086013567ffffffffffffffff8111156133a7576133a6612a12565b5b6133b3888289016131d7565b925050608086013567ffffffffffffffff8111156133d4576133d3612a12565b5b6133e0888289016132b8565b9150509295509295909350565b6000806040838503121561340457613403612a0d565b5b600061341285828601612b83565b925050602083013567ffffffffffffffff81111561343357613432612a12565b5b61343f85828601612e35565b9150509250929050565b60008060006060848603121561346257613461612a0d565b5b600061347086828701612bdc565b935050602061348186828701612b83565b925050604084013567ffffffffffffffff8111156134a2576134a1612a12565b5b6134ae86828701612e35565b9150509250925092565b600080604083850312156134cf576134ce612a0d565b5b600083013567ffffffffffffffff8111156134ed576134ec612a12565b5b6134f985828601613114565b925050602083013567ffffffffffffffff81111561351a57613519612a12565b5b613526858286016132b8565b9150509250929050565b600081519050919050565b600082825260208201905092915050565b6000819050602082019050919050565b61356581612b62565b82525050565b6000613577838361355c565b60208301905092915050565b6000602082019050919050565b600061359b82613530565b6135a5818561353b565b93506135b08361354c565b8060005b838110156135e15781516135c8888261356b565b97506135d383613583565b9250506001810190506135b4565b5085935050505092915050565b600060208201905081810360008301526136088184613590565b905092915050565b6000806000806080858703121561362a57613629612a0d565b5b600061363887828801612bdc565b945050602061364987828801612b83565b935050604061365a87828801612d28565b925050606085013567ffffffffffffffff81111561367b5761367a612a12565b5b61368787828801612e35565b91505092959194509250565b6000602082840312156136a9576136a8612a0d565b5b600082013567ffffffffffffffff8111156136c7576136c6612a12565b5b6136d384828501613114565b91505092915050565b600081519050919050565b600082825260208201905092915050565b6000819050602082019050919050565b600082825260208201905092915050565b600061372482612efa565b61372e8185613708565b935061373e818560208601612f05565b613747816129a1565b840191505092915050565b600061375e8383613719565b905092915050565b6000602082019050919050565b600061377e826136dc565b61378881856136e7565b93508360208202850161379a856136f8565b8060005b858110156137d657848403895281516137b78582613752565b94506137c283613766565b925060208a0199505060018101905061379e565b50829750879550505050505092915050565b600060208201905081810360008301526138028184613773565b905092915050565b600067ffffffffffffffff82111561382557613824612d47565b5b61382e826129a1565b9050602081019050919050565b600061384e6138498461380a565b612da7565b90508281526020810184848401111561386a57613869612d42565b5b613875848285612992565b509392505050565b600082601f83011261389257613891612d3d565b5b81356138a284826020860161383b565b91505092915050565b6000806000606084860312156138c4576138c3612a0d565b5b60006138d286828701612bdc565b935050602084013567ffffffffffffffff8111156138f3576138f2612a12565b5b6138ff8682870161387d565b925050604084013567ffffffffffffffff8111156139205761391f612a12565b5b61392c8682870161387d565b9150509250925092565b61393f81612a17565b82525050565b600060208201905061395a6000830184613936565b92915050565b600081905092915050565b60006139778385613960565b9350613984838584612992565b82840190509392505050565b60008160601b9050919050565b60006139a882613990565b9050919050565b60006139ba8261399d565b9050919050565b6139d26139cd82612b26565b6139af565b82525050565b6000819050919050565b6139f36139ee82612ad2565b6139d8565b82525050565b6000613a0682868861396b565b9150613a1282856139c1565b601482019150613a2282846139e2565b60208201915081905095945050505050565b6000613a3f82612efa565b613a498185613960565b9350613a59818560208601612f05565b80840191505092915050565b6000613a718284613a34565b915081905092915050565b613a8581612b62565b82525050565b6000602082019050613aa06000830184613a7c565b92915050565b6000604082019050613abb6000830185613a7c565b613ac86020830184612b38565b9392505050565b7f4e487b7100000000000000000000000000000000000000000000000000000000600052603260045260246000fd5b6000606082019050613b136000830186612b38565b613b206020830185613a7c565b613b2d6040830184612b38565b949350505050565b6000604082019050613b4a6000830185612b38565b613b576020830184613a7c565b9392505050565b6000608082019050613b736000830187612b38565b613b806020830186613a7c565b613b8d6040830185612aa8565b8181036060830152613b9f8184612f2f565b905095945050505050565b600082825260208201905092915050565b7f4475636b7941737365743a2043616c6c6572206973206e6f742074686520747260008201527f61697420636f6e74726f6c6c6572000000000000000000000000000000000000602082015250565b6000613c17602e83613baa565b9150613c2282613bbb565b604082019050919050565b60006020820190508181036000830152613c4681613c0a565b9050919050565b600081519050919050565b6000613c6382613c4d565b613c6d8185613baa565b9350613c7d818560208601612f05565b613c86816129a1565b840191505092915050565b60006020820190508181036000830152613cab8184613c58565b905092915050565b7f5065726b41646465640000000000000000000000000000000000000000000000815250565b6000604082019050613ced60008301613cb3565b613cfa6020830184613a7c565b92915050565b6000819050602082019050919050565b60007fffffffffffffffffffffffffffffffffffffffff00000000000000000000000082169050919050565b6000613d488251613d10565b80915050919050565b600082821b905092915050565b6000613d6982612efa565b82613d7384613d00565b9050613d7e81613d3c565b92506014821015613dbe57613db97fffffffffffffffffffffffffffffffffffffffff00000000000000000000000083601403600802613d51565b831692505b5050919050565b6000606082019050613dda6000830186612b38565b613de76020830185612aa8565b8181036040830152613df98184612f2f565b9050949350505050565b6000608082019050613e186000830187612b38565b613e256020830186612b38565b613e326040830185613a7c565b8181036060830152613e448184612f2f565b905095945050505050565b7f4e487b7100000000000000000000000000000000000000000000000000000000600052602260045260246000fd5b60006002820490506001821680613e9657607f821691505b602082108103613ea957613ea8613e4f565b5b50919050565b6000604082019050613ec46000830185613a7c565b8181036020830152613ed68184612f2f565b90509392505050565b6000613ef2613eed84612dc2565b612da7565b905082815260208101848484011115613f0e57613f0d612d42565b5b613f19848285612f05565b509392505050565b600082601f830112613f3657613f35612d3d565b5b8151613f46848260208601613edf565b91505092915050565b600060208284031215613f6557613f64612a0d565b5b600082015167ffffffffffffffff811115613f8357613f82612a12565b5b613f8f84828501613f21565b91505092915050565b6000604082019050613fad6000830185612aa8565b8181036020830152613fbf8184612f2f565b90509392505050565b600081905092915050565b7f5065726b733a0000000000000000000000000000000000000000000000000000600082015250565b6000614009600683613fc8565b915061401482613fd3565b600682019050919050565b7f3a00000000000000000000000000000000000000000000000000000000000000600082015250565b6000614055600183613fc8565b91506140608261401f565b600182019050919050565b600061407682613c4d565b6140808185613fc8565b9350614090818560208601612f05565b80840191505092915050565b60006140a782613ffc565b91506140b382866139c1565b6014820191506140c282614048565b91506140ce828561406b565b91506140d982614048565b91506140e5828461406b565b9150819050949350505050565b7f4475636b7941737365743a205065726b20616c72656164792065786973747300600082015250565b6000614128601f83613baa565b9150614133826140f2565b602082019050919050565b600060208201905081810360008301526141578161411b565b9050919050565b60007fffffffffffffffffffff0000000000000000000000000000000000000000000082169050919050565b6000819050919050565b6141a56141a08261415e565b61418a565b82525050565b60007fffff00000000000000000000000000000000000000000000000000000000000082169050919050565b6000819050919050565b6141f26141ed826141ab565b6141d7565b82525050565b6000819050919050565b61421361420e82613d10565b6141f8565b82525050565b60006142258286614194565b600a8201915061423582856141e1565b6002820191506142458284614202565b601482019150819050949350505050565b60006142628251612b62565b80915050919050565b600061427682612efa565b8261428084613d00565b905061428b81614256565b925060208210156142cb576142c67fffffffffffffffffffffffffffffffffffffffffffffffffffffffffffffffff83602003600802613d51565b831692505b5050919050565b60008190508160005260206000209050919050565b60006020601f8301049050919050565b6000600883026143277fffffffffffffffffffffffffffffffffffffffffffffffffffffffffffffffff82613d51565b6143318683613d51565b95508019841693508086168417925050509392505050565b6000819050919050565b600061436e61436961436484612ad2565b614349565b612ad2565b9050919050565b6000819050919050565b61438883614353565b61439c61439482614375565b8484546142f7565b825550505050565b600090565b6143b16143a4565b6143bc81848461437f565b505050565b5b818110156143e0576143d56000826143a9565b6001810190506143c2565b5050565b601f821115614425576143f6816142d2565b6143ff846142e7565b8101602085101561440e578190505b61442261441a856142e7565b8301826143c1565b50505b505050565b600082821c905092915050565b60006144486000198460080261442a565b1980831691505092915050565b60006144618383614437565b9150826002028217905092915050565b61447a82612efa565b67ffffffffffffffff81111561449357614492612d47565b5b61449d8254613e7e565b6144a88282856143e4565b600060209050601f8311600181146144db57600084156144c9578287015190505b6144d38582614455565b86555061453b565b601f1984166144e9866142d2565b60005b82811015614511578489015182556001820191506020850194506020810190506144ec565b8683101561452e578489015161452a601f891682614437565b8355505b6001600288020188555050505b505050505050565b7f4e487b7100000000000000000000000000000000000000000000000000000000600052601160045260246000fd5b600061457d82612ad2565b915061458883612ad2565b92508282039050818111156145a05761459f614543565b5b92915050565b7f4e487b7100000000000000000000000000000000000000000000000000000000600052603160045260246000fd5b60006145e082612ad2565b91506145eb83612ad2565b925082820190508082111561460357614602614543565b5b92915050565b7f736c6963655f6f766572666c6f77000000000000000000000000000000000000600082015250565b600061463f600e83613baa565b915061464a82614609565b602082019050919050565b6000602082019050818103600083015261466e81614632565b9050919050565b7f736c6963655f6f75744f66426f756e6473000000000000000000000000000000600082015250565b60006146ab601183613baa565b91506146b682614675565b602082019050919050565b600060208201905081810360008301526146da8161469e565b905091905056fea2646970667358221220c64070f2ab6593cac7f3f01774df203544483d0aeb541be6adae848db4dbed2b64736f6c63430008130033",
  "linkReferences": {},
  "deployedLinkReferences": {}
}